{
  "contractName": "BytecodeAnalysis",
  "abi": [
    {
      "inputs": [],
      "name": "deploy",
      "outputs": [
        {
          "internalType": "address",
          "name": "",
          "type": "address"
        }
      ],
      "stateMutability": "payable",
      "type": "function"
    }
  ],
  "bytecode": "0x608060405234801561000f575f80fd5b5061017b8061001d5f395ff3fe60806040526004361061001d575f3560e01c8063775c300c14610021575b5f80fd5b61002961003f565b60405161003691906100ae565b60405180910390f35b5f806040518060a00160405280607e81526020016100c8607e913990505f8151602083015ff09050809250505090565b5f73ffffffffffffffffffffffffffffffffffffffff82169050919050565b5f6100988261006f565b9050919050565b6100a88161008e565b82525050565b5f6020820190506100c15f83018461009f565b9291505056fe307836303830363034303532356638306664666561323634363937303636373335383232313232306635643639386163646466663365393737376338353364623931663535383037306166326433386166653837313431653337633437393733336261356138613836343733366636633633343330303038313530303333a26469706673582212204984627b26070ec9a63bcc95da7120b6f7c47283272e28a5ac53eca9af81aab064736f6c63430008150033",
  "immutableReferences": {},
  "source": "pragma solidity ^0.8.0;\r\n\r\ncontract BytecodeAnalysis {\r\n    function deploy() public payable returns (address) {\r\n        bytes memory bytecode = \"0x60806040525f80fdfea2646970667358221220f5d698acddff3e9777c853db91f558070af2d38afe87141e37c479733ba5a8a864736f6c63430008150033\";\r\n        address addr;\r\n        assembly {\r\n            addr := create(0, add(bytecode, 0x20), mload(bytecode))\r\n        }\r\n        return addr;\r\n    }\r\n}",
  "sourcePath": "D:\\nftProject\\nftProject-truffle\\contracts\\deployedcode.sol",
  "compiler": {
    "name": "solc",
    "version": "0.8.21+commit.d9974bed.Emscripten.clang"
  },
  "schemaVersion": "3.4.16",
  "updatedAt": "2024-10-28T05:57:34.627Z",
  "devdoc": {
    "kind": "dev",
    "methods": {},
    "version": 1
  },
  "userdoc": {
    "kind": "user",
    "methods": {},
    "version": 1
  }
}