{
  "contractName": "MyNFT",
  "abi": [
    {
      "inputs": [],
      "stateMutability": "nonpayable",
      "type": "constructor"
    },
    {
      "inputs": [
        {
          "internalType": "address",
          "name": "sender",
          "type": "address"
        },
        {
          "internalType": "uint256",
          "name": "tokenId",
          "type": "uint256"
        },
        {
          "internalType": "address",
          "name": "owner",
          "type": "address"
        }
      ],
      "name": "ERC721IncorrectOwner",
      "type": "error"
    },
    {
      "inputs": [
        {
          "internalType": "address",
          "name": "operator",
          "type": "address"
        },
        {
          "internalType": "uint256",
          "name": "tokenId",
          "type": "uint256"
        }
      ],
      "name": "ERC721InsufficientApproval",
      "type": "error"
    },
    {
      "inputs": [
        {
          "internalType": "address",
          "name": "approver",
          "type": "address"
        }
      ],
      "name": "ERC721InvalidApprover",
      "type": "error"
    },
    {
      "inputs": [
        {
          "internalType": "address",
          "name": "operator",
          "type": "address"
        }
      ],
      "name": "ERC721InvalidOperator",
      "type": "error"
    },
    {
      "inputs": [
        {
          "internalType": "address",
          "name": "owner",
          "type": "address"
        }
      ],
      "name": "ERC721InvalidOwner",
      "type": "error"
    },
    {
      "inputs": [
        {
          "internalType": "address",
          "name": "receiver",
          "type": "address"
        }
      ],
      "name": "ERC721InvalidReceiver",
      "type": "error"
    },
    {
      "inputs": [
        {
          "internalType": "address",
          "name": "sender",
          "type": "address"
        }
      ],
      "name": "ERC721InvalidSender",
      "type": "error"
    },
    {
      "inputs": [
        {
          "internalType": "uint256",
          "name": "tokenId",
          "type": "uint256"
        }
      ],
      "name": "ERC721NonexistentToken",
      "type": "error"
    },
    {
      "inputs": [
        {
          "internalType": "address",
          "name": "owner",
          "type": "address"
        }
      ],
      "name": "OwnableInvalidOwner",
      "type": "error"
    },
    {
      "inputs": [
        {
          "internalType": "address",
          "name": "account",
          "type": "address"
        }
      ],
      "name": "OwnableUnauthorizedAccount",
      "type": "error"
    },
    {
      "anonymous": false,
      "inputs": [
        {
          "indexed": true,
          "internalType": "address",
          "name": "owner",
          "type": "address"
        },
        {
          "indexed": true,
          "internalType": "address",
          "name": "approved",
          "type": "address"
        },
        {
          "indexed": true,
          "internalType": "uint256",
          "name": "tokenId",
          "type": "uint256"
        }
      ],
      "name": "Approval",
      "type": "event"
    },
    {
      "anonymous": false,
      "inputs": [
        {
          "indexed": true,
          "internalType": "address",
          "name": "owner",
          "type": "address"
        },
        {
          "indexed": true,
          "internalType": "address",
          "name": "operator",
          "type": "address"
        },
        {
          "indexed": false,
          "internalType": "bool",
          "name": "approved",
          "type": "bool"
        }
      ],
      "name": "ApprovalForAll",
      "type": "event"
    },
    {
      "anonymous": false,
      "inputs": [
        {
          "indexed": false,
          "internalType": "uint256",
          "name": "_fromTokenId",
          "type": "uint256"
        },
        {
          "indexed": false,
          "internalType": "uint256",
          "name": "_toTokenId",
          "type": "uint256"
        }
      ],
      "name": "BatchMetadataUpdate",
      "type": "event"
    },
    {
      "anonymous": false,
      "inputs": [
        {
          "indexed": false,
          "internalType": "uint256",
          "name": "_tokenId",
          "type": "uint256"
        }
      ],
      "name": "MetadataUpdate",
      "type": "event"
    },
    {
      "anonymous": false,
      "inputs": [
        {
          "indexed": true,
          "internalType": "address",
          "name": "previousOwner",
          "type": "address"
        },
        {
          "indexed": true,
          "internalType": "address",
          "name": "newOwner",
          "type": "address"
        }
      ],
      "name": "OwnershipTransferred",
      "type": "event"
    },
    {
      "anonymous": false,
      "inputs": [
        {
          "indexed": true,
          "internalType": "address",
          "name": "from",
          "type": "address"
        },
        {
          "indexed": true,
          "internalType": "address",
          "name": "to",
          "type": "address"
        },
        {
          "indexed": true,
          "internalType": "uint256",
          "name": "tokenId",
          "type": "uint256"
        }
      ],
      "name": "Transfer",
      "type": "event"
    },
    {
      "inputs": [
        {
          "internalType": "address",
          "name": "to",
          "type": "address"
        },
        {
          "internalType": "uint256",
          "name": "tokenId",
          "type": "uint256"
        }
      ],
      "name": "approve",
      "outputs": [],
      "stateMutability": "nonpayable",
      "type": "function"
    },
    {
      "inputs": [
        {
          "internalType": "address",
          "name": "owner",
          "type": "address"
        }
      ],
      "name": "balanceOf",
      "outputs": [
        {
          "internalType": "uint256",
          "name": "",
          "type": "uint256"
        }
      ],
      "stateMutability": "view",
      "type": "function",
      "constant": true
    },
    {
      "inputs": [
        {
          "internalType": "uint256",
          "name": "tokenId",
          "type": "uint256"
        }
      ],
      "name": "getApproved",
      "outputs": [
        {
          "internalType": "address",
          "name": "",
          "type": "address"
        }
      ],
      "stateMutability": "view",
      "type": "function",
      "constant": true
    },
    {
      "inputs": [
        {
          "internalType": "address",
          "name": "owner",
          "type": "address"
        },
        {
          "internalType": "address",
          "name": "operator",
          "type": "address"
        }
      ],
      "name": "isApprovedForAll",
      "outputs": [
        {
          "internalType": "bool",
          "name": "",
          "type": "bool"
        }
      ],
      "stateMutability": "view",
      "type": "function",
      "constant": true
    },
    {
      "inputs": [],
      "name": "name",
      "outputs": [
        {
          "internalType": "string",
          "name": "",
          "type": "string"
        }
      ],
      "stateMutability": "view",
      "type": "function",
      "constant": true
    },
    {
      "inputs": [],
      "name": "owner",
      "outputs": [
        {
          "internalType": "address",
          "name": "",
          "type": "address"
        }
      ],
      "stateMutability": "view",
      "type": "function",
      "constant": true
    },
    {
      "inputs": [
        {
          "internalType": "uint256",
          "name": "tokenId",
          "type": "uint256"
        }
      ],
      "name": "ownerOf",
      "outputs": [
        {
          "internalType": "address",
          "name": "",
          "type": "address"
        }
      ],
      "stateMutability": "view",
      "type": "function",
      "constant": true
    },
    {
      "inputs": [],
      "name": "renounceOwnership",
      "outputs": [],
      "stateMutability": "nonpayable",
      "type": "function"
    },
    {
      "inputs": [
        {
          "internalType": "address",
          "name": "from",
          "type": "address"
        },
        {
          "internalType": "address",
          "name": "to",
          "type": "address"
        },
        {
          "internalType": "uint256",
          "name": "tokenId",
          "type": "uint256"
        }
      ],
      "name": "safeTransferFrom",
      "outputs": [],
      "stateMutability": "nonpayable",
      "type": "function"
    },
    {
      "inputs": [
        {
          "internalType": "address",
          "name": "from",
          "type": "address"
        },
        {
          "internalType": "address",
          "name": "to",
          "type": "address"
        },
        {
          "internalType": "uint256",
          "name": "tokenId",
          "type": "uint256"
        },
        {
          "internalType": "bytes",
          "name": "data",
          "type": "bytes"
        }
      ],
      "name": "safeTransferFrom",
      "outputs": [],
      "stateMutability": "nonpayable",
      "type": "function"
    },
    {
      "inputs": [
        {
          "internalType": "address",
          "name": "operator",
          "type": "address"
        },
        {
          "internalType": "bool",
          "name": "approved",
          "type": "bool"
        }
      ],
      "name": "setApprovalForAll",
      "outputs": [],
      "stateMutability": "nonpayable",
      "type": "function"
    },
    {
      "inputs": [
        {
          "internalType": "bytes4",
          "name": "interfaceId",
          "type": "bytes4"
        }
      ],
      "name": "supportsInterface",
      "outputs": [
        {
          "internalType": "bool",
          "name": "",
          "type": "bool"
        }
      ],
      "stateMutability": "view",
      "type": "function",
      "constant": true
    },
    {
      "inputs": [],
      "name": "symbol",
      "outputs": [
        {
          "internalType": "string",
          "name": "",
          "type": "string"
        }
      ],
      "stateMutability": "view",
      "type": "function",
      "constant": true
    },
    {
      "inputs": [
        {
          "internalType": "uint256",
          "name": "tokenId",
          "type": "uint256"
        }
      ],
      "name": "tokenURI",
      "outputs": [
        {
          "internalType": "string",
          "name": "",
          "type": "string"
        }
      ],
      "stateMutability": "view",
      "type": "function",
      "constant": true
    },
    {
      "inputs": [
        {
          "internalType": "address",
          "name": "from",
          "type": "address"
        },
        {
          "internalType": "address",
          "name": "to",
          "type": "address"
        },
        {
          "internalType": "uint256",
          "name": "tokenId",
          "type": "uint256"
        }
      ],
      "name": "transferFrom",
      "outputs": [],
      "stateMutability": "nonpayable",
      "type": "function"
    },
    {
      "inputs": [
        {
          "internalType": "address",
          "name": "newOwner",
          "type": "address"
        }
      ],
      "name": "transferOwnership",
      "outputs": [],
      "stateMutability": "nonpayable",
      "type": "function"
    },
    {
      "inputs": [
        {
          "internalType": "string",
          "name": "tokenURI",
          "type": "string"
        }
      ],
      "name": "mintNFT",
      "outputs": [
        {
          "internalType": "uint256",
          "name": "",
          "type": "uint256"
        }
      ],
      "stateMutability": "nonpayable",
      "type": "function"
    }
  ],
  "bytecode": "0x608060405234801562000010575f80fd5b50336040518060400160405280600581526020017f4d794e46540000000000000000000000000000000000000000000000000000008152506040518060400160405280600581526020017f4d794e4654000000000000000000000000000000000000000000000000000000815250815f90816200008e91906200045c565b508060019081620000a091906200045c565b5050505f73ffffffffffffffffffffffffffffffffffffffff168173ffffffffffffffffffffffffffffffffffffffff160362000116575f6040517f1e4fbdf70000000000000000000000000000000000000000000000000000000081526004016200010d919062000583565b60405180910390fd5b62000127816200013560201b60201c565b505f6008819055506200059e565b5f60075f9054906101000a900473ffffffffffffffffffffffffffffffffffffffff1690508160075f6101000a81548173ffffffffffffffffffffffffffffffffffffffff021916908373ffffffffffffffffffffffffffffffffffffffff1602179055508173ffffffffffffffffffffffffffffffffffffffff168173ffffffffffffffffffffffffffffffffffffffff167f8be0079c531659141344cd1fd0a4f28419497f9722a3daafe3b4186f6b6457e060405160405180910390a35050565b5f81519050919050565b7f4e487b71000000000000000000000000000000000000000000000000000000005f52604160045260245ffd5b7f4e487b71000000000000000000000000000000000000000000000000000000005f52602260045260245ffd5b5f60028204905060018216806200027457607f821691505b6020821081036200028a57620002896200022f565b5b50919050565b5f819050815f5260205f209050919050565b5f6020601f8301049050919050565b5f82821b905092915050565b5f60088302620002ee7fffffffffffffffffffffffffffffffffffffffffffffffffffffffffffffffff82620002b1565b620002fa8683620002b1565b95508019841693508086168417925050509392505050565b5f819050919050565b5f819050919050565b5f620003446200033e620003388462000312565b6200031b565b62000312565b9050919050565b5f819050919050565b6200035f8362000324565b620003776200036e826200034b565b848454620002bd565b825550505050565b5f90565b6200038d6200037f565b6200039a81848462000354565b505050565b5b81811015620003c157620003b55f8262000383565b600181019050620003a0565b5050565b601f8211156200041057620003da8162000290565b620003e584620002a2565b81016020851015620003f5578190505b6200040d6200040485620002a2565b8301826200039f565b50505b505050565b5f82821c905092915050565b5f620004325f198460080262000415565b1980831691505092915050565b5f6200044c838362000421565b9150826002028217905092915050565b6200046782620001f8565b67ffffffffffffffff81111562000483576200048262000202565b5b6200048f82546200025c565b6200049c828285620003c5565b5f60209050601f831160018114620004d2575f8415620004bd578287015190505b620004c985826200043f565b86555062000538565b601f198416620004e28662000290565b5f5b828110156200050b57848901518255600182019150602085019450602081019050620004e4565b868310156200052b578489015162000527601f89168262000421565b8355505b6001600288020188555050505b505050505050565b5f73ffffffffffffffffffffffffffffffffffffffff82169050919050565b5f6200056b8262000540565b9050919050565b6200057d816200055f565b82525050565b5f602082019050620005985f83018462000572565b92915050565b61259180620005ac5f395ff3fe608060405234801561000f575f80fd5b5060043610610109575f3560e01c8063715018a6116100a0578063b88d4fde1161006f578063b88d4fde146102a1578063c87b56dd146102bd578063e985e9c5146102ed578063f2fde38b1461031d578063fb37e8831461033957610109565b8063715018a61461023f5780638da5cb5b1461024957806395d89b4114610267578063a22cb4651461028557610109565b806323b872dd116100dc57806323b872dd146101a757806342842e0e146101c35780636352211e146101df57806370a082311461020f57610109565b806301ffc9a71461010d57806306fdde031461013d578063081812fc1461015b578063095ea7b31461018b575b5f80fd5b61012760048036038101906101229190611a5d565b610369565b6040516101349190611aa2565b60405180910390f35b6101456103c9565b6040516101529190611b45565b60405180910390f35b61017560048036038101906101709190611b98565b610458565b6040516101829190611c02565b60405180910390f35b6101a560048036038101906101a09190611c45565b610473565b005b6101c160048036038101906101bc9190611c83565b610489565b005b6101dd60048036038101906101d89190611c83565b610588565b005b6101f960048036038101906101f49190611b98565b6105a7565b6040516102069190611c02565b60405180910390f35b61022960048036038101906102249190611cd3565b6105b8565b6040516102369190611d0d565b60405180910390f35b61024761066e565b005b610251610681565b60405161025e9190611c02565b60405180910390f35b61026f6106a9565b60405161027c9190611b45565b60405180910390f35b61029f600480360381019061029a9190611d50565b610739565b005b6102bb60048036038101906102b69190611eba565b61074f565b005b6102d760048036038101906102d29190611b98565b610774565b6040516102e49190611b45565b60405180910390f35b61030760048036038101906103029190611f3a565b61087f565b6040516103149190611aa2565b60405180910390f35b61033760048036038101906103329190611cd3565b61090d565b005b610353600480360381019061034e9190612016565b610991565b6040516103609190611d0d565b60405180910390f35b5f634906490660e01b7bffffffffffffffffffffffffffffffffffffffffffffffffffffffff1916827bffffffffffffffffffffffffffffffffffffffffffffffffffffffff191614806103c257506103c1826109cc565b5b9050919050565b60605f80546103d79061208a565b80601f01602080910402602001604051908101604052809291908181526020018280546104039061208a565b801561044e5780601f106104255761010080835404028352916020019161044e565b820191905f5260205f20905b81548152906001019060200180831161043157829003601f168201915b5050505050905090565b5f61046282610aad565b5061046c82610b33565b9050919050565b6104858282610480610b6c565b610b73565b5050565b5f73ffffffffffffffffffffffffffffffffffffffff168273ffffffffffffffffffffffffffffffffffffffff16036104f9575f6040517f64a0ae920000000000000000000000000000000000000000000000000000000081526004016104f09190611c02565b60405180910390fd5b5f61050c8383610507610b6c565b610b85565b90508373ffffffffffffffffffffffffffffffffffffffff168173ffffffffffffffffffffffffffffffffffffffff1614610582578382826040517f64283d7b000000000000000000000000000000000000000000000000000000008152600401610579939291906120ba565b60405180910390fd5b50505050565b6105a283838360405180602001604052805f81525061074f565b505050565b5f6105b182610aad565b9050919050565b5f8073ffffffffffffffffffffffffffffffffffffffff168273ffffffffffffffffffffffffffffffffffffffff1603610629575f6040517f89c62b640000000000000000000000000000000000000000000000000000000081526004016106209190611c02565b60405180910390fd5b60035f8373ffffffffffffffffffffffffffffffffffffffff1673ffffffffffffffffffffffffffffffffffffffff1681526020019081526020015f20549050919050565b610676610d90565b61067f5f610e17565b565b5f60075f9054906101000a900473ffffffffffffffffffffffffffffffffffffffff16905090565b6060600180546106b89061208a565b80601f01602080910402602001604051908101604052809291908181526020018280546106e49061208a565b801561072f5780601f106107065761010080835404028352916020019161072f565b820191905f5260205f20905b81548152906001019060200180831161071257829003601f168201915b5050505050905090565b61074b610744610b6c565b8383610eda565b5050565b61075a848484610489565b61076e610765610b6c565b85858585611043565b50505050565b606061077f82610aad565b505f60065f8481526020019081526020015f20805461079d9061208a565b80601f01602080910402602001604051908101604052809291908181526020018280546107c99061208a565b80156108145780601f106107eb57610100808354040283529160200191610814565b820191905f5260205f20905b8154815290600101906020018083116107f757829003601f168201915b505050505090505f6108246111ef565b90505f81510361083857819250505061087a565b5f8251111561086c578082604051602001610854929190612129565b6040516020818303038152906040529250505061087a565b61087584611205565b925050505b919050565b5f60055f8473ffffffffffffffffffffffffffffffffffffffff1673ffffffffffffffffffffffffffffffffffffffff1681526020019081526020015f205f8373ffffffffffffffffffffffffffffffffffffffff1673ffffffffffffffffffffffffffffffffffffffff1681526020019081526020015f205f9054906101000a900460ff16905092915050565b610915610d90565b5f73ffffffffffffffffffffffffffffffffffffffff168173ffffffffffffffffffffffffffffffffffffffff1603610985575f6040517f1e4fbdf700000000000000000000000000000000000000000000000000000000815260040161097c9190611c02565b60405180910390fd5b61098e81610e17565b50565b5f8060085490506109a2338261126b565b6109ac8184611288565b60085f8154809291906109be90612179565b919050555080915050919050565b5f7f80ac58cd000000000000000000000000000000000000000000000000000000007bffffffffffffffffffffffffffffffffffffffffffffffffffffffff1916827bffffffffffffffffffffffffffffffffffffffffffffffffffffffff19161480610a9657507f5b5e139f000000000000000000000000000000000000000000000000000000007bffffffffffffffffffffffffffffffffffffffffffffffffffffffff1916827bffffffffffffffffffffffffffffffffffffffffffffffffffffffff1916145b80610aa65750610aa5826112e2565b5b9050919050565b5f80610ab88361134b565b90505f73ffffffffffffffffffffffffffffffffffffffff168173ffffffffffffffffffffffffffffffffffffffff1603610b2a57826040517f7e273289000000000000000000000000000000000000000000000000000000008152600401610b219190611d0d565b60405180910390fd5b80915050919050565b5f60045f8381526020019081526020015f205f9054906101000a900473ffffffffffffffffffffffffffffffffffffffff169050919050565b5f33905090565b610b808383836001611384565b505050565b5f80610b908461134b565b90505f73ffffffffffffffffffffffffffffffffffffffff168373ffffffffffffffffffffffffffffffffffffffff1614610bd157610bd0818486611543565b5b5f73ffffffffffffffffffffffffffffffffffffffff168173ffffffffffffffffffffffffffffffffffffffff1614610c5c57610c105f855f80611384565b600160035f8373ffffffffffffffffffffffffffffffffffffffff1673ffffffffffffffffffffffffffffffffffffffff1681526020019081526020015f205f82825403925050819055505b5f73ffffffffffffffffffffffffffffffffffffffff168573ffffffffffffffffffffffffffffffffffffffff1614610cdb57600160035f8773ffffffffffffffffffffffffffffffffffffffff1673ffffffffffffffffffffffffffffffffffffffff1681526020019081526020015f205f82825401925050819055505b8460025f8681526020019081526020015f205f6101000a81548173ffffffffffffffffffffffffffffffffffffffff021916908373ffffffffffffffffffffffffffffffffffffffff160217905550838573ffffffffffffffffffffffffffffffffffffffff168273ffffffffffffffffffffffffffffffffffffffff167fddf252ad1be2c89b69c2b068fc378daa952ba7f163c4a11628f55a4df523b3ef60405160405180910390a4809150509392505050565b610d98610b6c565b73ffffffffffffffffffffffffffffffffffffffff16610db6610681565b73ffffffffffffffffffffffffffffffffffffffff1614610e1557610dd9610b6c565b6040517f118cdaa7000000000000000000000000000000000000000000000000000000008152600401610e0c9190611c02565b60405180910390fd5b565b5f60075f9054906101000a900473ffffffffffffffffffffffffffffffffffffffff1690508160075f6101000a81548173ffffffffffffffffffffffffffffffffffffffff021916908373ffffffffffffffffffffffffffffffffffffffff1602179055508173ffffffffffffffffffffffffffffffffffffffff168173ffffffffffffffffffffffffffffffffffffffff167f8be0079c531659141344cd1fd0a4f28419497f9722a3daafe3b4186f6b6457e060405160405180910390a35050565b5f73ffffffffffffffffffffffffffffffffffffffff168273ffffffffffffffffffffffffffffffffffffffff1603610f4a57816040517f5b08ba18000000000000000000000000000000000000000000000000000000008152600401610f419190611c02565b60405180910390fd5b8060055f8573ffffffffffffffffffffffffffffffffffffffff1673ffffffffffffffffffffffffffffffffffffffff1681526020019081526020015f205f8473ffffffffffffffffffffffffffffffffffffffff1673ffffffffffffffffffffffffffffffffffffffff1681526020019081526020015f205f6101000a81548160ff0219169083151502179055508173ffffffffffffffffffffffffffffffffffffffff168373ffffffffffffffffffffffffffffffffffffffff167f17307eab39ab6107e8899845ad3d59bd9653f200f220920489ca2b5937696c31836040516110369190611aa2565b60405180910390a3505050565b5f8373ffffffffffffffffffffffffffffffffffffffff163b11156111e8578273ffffffffffffffffffffffffffffffffffffffff1663150b7a02868685856040518563ffffffff1660e01b81526004016110a19493929190612212565b6020604051808303815f875af19250505080156110dc57506040513d601f19601f820116820180604052508101906110d99190612270565b60015b61115d573d805f811461110a576040519150601f19603f3d011682016040523d82523d5f602084013e61110f565b606091505b505f81510361115557836040517f64a0ae9200000000000000000000000000000000000000000000000000000000815260040161114c9190611c02565b60405180910390fd5b805181602001fd5b63150b7a0260e01b7bffffffffffffffffffffffffffffffffffffffffffffffffffffffff1916817bffffffffffffffffffffffffffffffffffffffffffffffffffffffff1916146111e657836040517f64a0ae920000000000000000000000000000000000000000000000000000000081526004016111dd9190611c02565b60405180910390fd5b505b5050505050565b606060405180602001604052805f815250905090565b606061121082610aad565b505f61121a6111ef565b90505f8151116112385760405180602001604052805f815250611263565b8061124284611606565b604051602001611253929190612129565b6040516020818303038152906040525b915050919050565b611284828260405180602001604052805f8152506116d0565b5050565b8060065f8481526020019081526020015f2090816112a69190612438565b507ff8e1a15aba9398e019f0b49df1a4fde98ee17ae345cb5f6b5e2c27f5033e8ce7826040516112d69190611d0d565b60405180910390a15050565b5f7f01ffc9a7000000000000000000000000000000000000000000000000000000007bffffffffffffffffffffffffffffffffffffffffffffffffffffffff1916827bffffffffffffffffffffffffffffffffffffffffffffffffffffffff1916149050919050565b5f60025f8381526020019081526020015f205f9054906101000a900473ffffffffffffffffffffffffffffffffffffffff169050919050565b80806113bc57505f73ffffffffffffffffffffffffffffffffffffffff168273ffffffffffffffffffffffffffffffffffffffff1614155b156114ee575f6113cb84610aad565b90505f73ffffffffffffffffffffffffffffffffffffffff168373ffffffffffffffffffffffffffffffffffffffff161415801561143557508273ffffffffffffffffffffffffffffffffffffffff168173ffffffffffffffffffffffffffffffffffffffff1614155b80156114485750611446818461087f565b155b1561148a57826040517fa9fbf51f0000000000000000000000000000000000000000000000000000000081526004016114819190611c02565b60405180910390fd5b81156114ec57838573ffffffffffffffffffffffffffffffffffffffff168273ffffffffffffffffffffffffffffffffffffffff167f8c5be1e5ebec7d5bd14f71427d1e84f3dd0314c0f7b2291e5b200ac8c7c3b92560405160405180910390a45b505b8360045f8581526020019081526020015f205f6101000a81548173ffffffffffffffffffffffffffffffffffffffff021916908373ffffffffffffffffffffffffffffffffffffffff16021790555050505050565b61154e8383836116f3565b611601575f73ffffffffffffffffffffffffffffffffffffffff168373ffffffffffffffffffffffffffffffffffffffff16036115c257806040517f7e2732890000000000000000000000000000000000000000000000000000000081526004016115b99190611d0d565b60405180910390fd5b81816040517f177e802f0000000000000000000000000000000000000000000000000000000081526004016115f8929190612507565b60405180910390fd5b505050565b60605f6001611614846117b3565b0190505f8167ffffffffffffffff81111561163257611631611d96565b5b6040519080825280601f01601f1916602001820160405280156116645781602001600182028036833780820191505090505b5090505f82602001820190505b6001156116c5578080600190039150507f3031323334353637383961626364656600000000000000000000000000000000600a86061a8153600a85816116ba576116b961252e565b5b0494505f8503611671575b819350505050919050565b6116da8383611904565b6116ee6116e5610b6c565b5f858585611043565b505050565b5f8073ffffffffffffffffffffffffffffffffffffffff168373ffffffffffffffffffffffffffffffffffffffff16141580156117aa57508273ffffffffffffffffffffffffffffffffffffffff168473ffffffffffffffffffffffffffffffffffffffff16148061176b575061176a848461087f565b5b806117a957508273ffffffffffffffffffffffffffffffffffffffff1661179183610b33565b73ffffffffffffffffffffffffffffffffffffffff16145b5b90509392505050565b5f805f90507a184f03e93ff9f4daa797ed6e38ed64bf6a1f010000000000000000831061180f577a184f03e93ff9f4daa797ed6e38ed64bf6a1f01000000000000000083816118055761180461252e565b5b0492506040810190505b6d04ee2d6d415b85acef8100000000831061184c576d04ee2d6d415b85acef810000000083816118425761184161252e565b5b0492506020810190505b662386f26fc10000831061187b57662386f26fc1000083816118715761187061252e565b5b0492506010810190505b6305f5e10083106118a4576305f5e100838161189a5761189961252e565b5b0492506008810190505b61271083106118c95761271083816118bf576118be61252e565b5b0492506004810190505b606483106118ec57606483816118e2576118e161252e565b5b0492506002810190505b600a83106118fb576001810190505b80915050919050565b5f73ffffffffffffffffffffffffffffffffffffffff168273ffffffffffffffffffffffffffffffffffffffff1603611974575f6040517f64a0ae9200000000000000000000000000000000000000000000000000000000815260040161196b9190611c02565b60405180910390fd5b5f61198083835f610b85565b90505f73ffffffffffffffffffffffffffffffffffffffff168173ffffffffffffffffffffffffffffffffffffffff16146119f2575f6040517f73c6ac6e0000000000000000000000000000000000000000000000000000000081526004016119e99190611c02565b60405180910390fd5b505050565b5f604051905090565b5f80fd5b5f80fd5b5f7fffffffff0000000000000000000000000000000000000000000000000000000082169050919050565b611a3c81611a08565b8114611a46575f80fd5b50565b5f81359050611a5781611a33565b92915050565b5f60208284031215611a7257611a71611a00565b5b5f611a7f84828501611a49565b91505092915050565b5f8115159050919050565b611a9c81611a88565b82525050565b5f602082019050611ab55f830184611a93565b92915050565b5f81519050919050565b5f82825260208201905092915050565b5f5b83811015611af2578082015181840152602081019050611ad7565b5f8484015250505050565b5f601f19601f8301169050919050565b5f611b1782611abb565b611b218185611ac5565b9350611b31818560208601611ad5565b611b3a81611afd565b840191505092915050565b5f6020820190508181035f830152611b5d8184611b0d565b905092915050565b5f819050919050565b611b7781611b65565b8114611b81575f80fd5b50565b5f81359050611b9281611b6e565b92915050565b5f60208284031215611bad57611bac611a00565b5b5f611bba84828501611b84565b91505092915050565b5f73ffffffffffffffffffffffffffffffffffffffff82169050919050565b5f611bec82611bc3565b9050919050565b611bfc81611be2565b82525050565b5f602082019050611c155f830184611bf3565b92915050565b611c2481611be2565b8114611c2e575f80fd5b50565b5f81359050611c3f81611c1b565b92915050565b5f8060408385031215611c5b57611c5a611a00565b5b5f611c6885828601611c31565b9250506020611c7985828601611b84565b9150509250929050565b5f805f60608486031215611c9a57611c99611a00565b5b5f611ca786828701611c31565b9350506020611cb886828701611c31565b9250506040611cc986828701611b84565b9150509250925092565b5f60208284031215611ce857611ce7611a00565b5b5f611cf584828501611c31565b91505092915050565b611d0781611b65565b82525050565b5f602082019050611d205f830184611cfe565b92915050565b611d2f81611a88565b8114611d39575f80fd5b50565b5f81359050611d4a81611d26565b92915050565b5f8060408385031215611d6657611d65611a00565b5b5f611d7385828601611c31565b9250506020611d8485828601611d3c565b9150509250929050565b5f80fd5b5f80fd5b7f4e487b71000000000000000000000000000000000000000000000000000000005f52604160045260245ffd5b611dcc82611afd565b810181811067ffffffffffffffff82111715611deb57611dea611d96565b5b80604052505050565b5f611dfd6119f7565b9050611e098282611dc3565b919050565b5f67ffffffffffffffff821115611e2857611e27611d96565b5b611e3182611afd565b9050602081019050919050565b828183375f83830152505050565b5f611e5e611e5984611e0e565b611df4565b905082815260208101848484011115611e7a57611e79611d92565b5b611e85848285611e3e565b509392505050565b5f82601f830112611ea157611ea0611d8e565b5b8135611eb1848260208601611e4c565b91505092915050565b5f805f8060808587031215611ed257611ed1611a00565b5b5f611edf87828801611c31565b9450506020611ef087828801611c31565b9350506040611f0187828801611b84565b925050606085013567ffffffffffffffff811115611f2257611f21611a04565b5b611f2e87828801611e8d565b91505092959194509250565b5f8060408385031215611f5057611f4f611a00565b5b5f611f5d85828601611c31565b9250506020611f6e85828601611c31565b9150509250929050565b5f67ffffffffffffffff821115611f9257611f91611d96565b5b611f9b82611afd565b9050602081019050919050565b5f611fba611fb584611f78565b611df4565b905082815260208101848484011115611fd657611fd5611d92565b5b611fe1848285611e3e565b509392505050565b5f82601f830112611ffd57611ffc611d8e565b5b813561200d848260208601611fa8565b91505092915050565b5f6020828403121561202b5761202a611a00565b5b5f82013567ffffffffffffffff81111561204857612047611a04565b5b61205484828501611fe9565b91505092915050565b7f4e487b71000000000000000000000000000000000000000000000000000000005f52602260045260245ffd5b5f60028204905060018216806120a157607f821691505b6020821081036120b4576120b361205d565b5b50919050565b5f6060820190506120cd5f830186611bf3565b6120da6020830185611cfe565b6120e76040830184611bf3565b949350505050565b5f81905092915050565b5f61210382611abb565b61210d81856120ef565b935061211d818560208601611ad5565b80840191505092915050565b5f61213482856120f9565b915061214082846120f9565b91508190509392505050565b7f4e487b71000000000000000000000000000000000000000000000000000000005f52601160045260245ffd5b5f61218382611b65565b91507fffffffffffffffffffffffffffffffffffffffffffffffffffffffffffffffff82036121b5576121b461214c565b5b600182019050919050565b5f81519050919050565b5f82825260208201905092915050565b5f6121e4826121c0565b6121ee81856121ca565b93506121fe818560208601611ad5565b61220781611afd565b840191505092915050565b5f6080820190506122255f830187611bf3565b6122326020830186611bf3565b61223f6040830185611cfe565b818103606083015261225181846121da565b905095945050505050565b5f8151905061226a81611a33565b92915050565b5f6020828403121561228557612284611a00565b5b5f6122928482850161225c565b91505092915050565b5f819050815f5260205f209050919050565b5f6020601f8301049050919050565b5f82821b905092915050565b5f600883026122f77fffffffffffffffffffffffffffffffffffffffffffffffffffffffffffffffff826122bc565b61230186836122bc565b95508019841693508086168417925050509392505050565b5f819050919050565b5f61233c61233761233284611b65565b612319565b611b65565b9050919050565b5f819050919050565b61235583612322565b61236961236182612343565b8484546122c8565b825550505050565b5f90565b61237d612371565b61238881848461234c565b505050565b5b818110156123ab576123a05f82612375565b60018101905061238e565b5050565b601f8211156123f0576123c18161229b565b6123ca846122ad565b810160208510156123d9578190505b6123ed6123e5856122ad565b83018261238d565b50505b505050565b5f82821c905092915050565b5f6124105f19846008026123f5565b1980831691505092915050565b5f6124288383612401565b9150826002028217905092915050565b61244182611abb565b67ffffffffffffffff81111561245a57612459611d96565b5b612464825461208a565b61246f8282856123af565b5f60209050601f8311600181146124a0575f841561248e578287015190505b612498858261241d565b8655506124ff565b601f1984166124ae8661229b565b5f5b828110156124d5578489015182556001820191506020850194506020810190506124b0565b868310156124f257848901516124ee601f891682612401565b8355505b6001600288020188555050505b505050505050565b5f60408201905061251a5f830185611bf3565b6125276020830184611cfe565b9392505050565b7f4e487b71000000000000000000000000000000000000000000000000000000005f52601260045260245ffdfea2646970667358221220d5dc84cfc9365c787a27d0d89aeea7689579677c88de35c74f01062c7b7329b764736f6c63430008150033",
  "immutableReferences": {},
  "source": "// SPDX-License-Identifier: MIT\npragma solidity ^0.8.21;\n\nimport \"@openzeppelin/contracts/token/ERC721/extensions/ERC721URIStorage.sol\";\nimport \"@openzeppelin/contracts/access/Ownable.sol\";\n\ncontract MyNFT is ERC721URIStorage, Ownable {\n  uint256 tokenCounter;\n\n  constructor() ERC721(\"MyNFT\",\"MyNFT\") Ownable(msg.sender) {\n    tokenCounter = 0;\n  }\n\n  function mintNFT(string memory tokenURI) public returns(uint256) {\n    uint256 tokenId = tokenCounter;\n    _safeMint(msg.sender, tokenId);\n    _setTokenURI(tokenId,tokenURI);\n    tokenCounter++;\n    return tokenId;\n  }\n}\n",
  "sourcePath": "D:\\nftProject\\nftProject-truffle\\contracts\\MyNFT.sol",
  "compiler": {
    "name": "solc",
    "version": "0.8.21+commit.d9974bed.Emscripten.clang"
  },
  "schemaVersion": "3.4.16",
  "updatedAt": "2024-10-28T05:57:52.760Z",
  "networkType": "ethereum",
  "devdoc": {
    "errors": {
      "ERC721IncorrectOwner(address,uint256,address)": [
        {
          "details": "Indicates an error related to the ownership over a particular token. Used in transfers.",
          "params": {
            "owner": "Address of the current owner of a token.",
            "sender": "Address whose tokens are being transferred.",
            "tokenId": "Identifier number of a token."
          }
        }
      ],
      "ERC721InsufficientApproval(address,uint256)": [
        {
          "details": "Indicates a failure with the `operator`s approval. Used in transfers.",
          "params": {
            "operator": "Address that may be allowed to operate on tokens without being their owner.",
            "tokenId": "Identifier number of a token."
          }
        }
      ],
      "ERC721InvalidApprover(address)": [
        {
          "details": "Indicates a failure with the `approver` of a token to be approved. Used in approvals.",
          "params": {
            "approver": "Address initiating an approval operation."
          }
        }
      ],
      "ERC721InvalidOperator(address)": [
        {
          "details": "Indicates a failure with the `operator` to be approved. Used in approvals.",
          "params": {
            "operator": "Address that may be allowed to operate on tokens without being their owner."
          }
        }
      ],
      "ERC721InvalidOwner(address)": [
        {
          "details": "Indicates that an address can't be an owner. For example, `address(0)` is a forbidden owner in ERC-20. Used in balance queries.",
          "params": {
            "owner": "Address of the current owner of a token."
          }
        }
      ],
      "ERC721InvalidReceiver(address)": [
        {
          "details": "Indicates a failure with the token `receiver`. Used in transfers.",
          "params": {
            "receiver": "Address to which tokens are being transferred."
          }
        }
      ],
      "ERC721InvalidSender(address)": [
        {
          "details": "Indicates a failure with the token `sender`. Used in transfers.",
          "params": {
            "sender": "Address whose tokens are being transferred."
          }
        }
      ],
      "ERC721NonexistentToken(uint256)": [
        {
          "details": "Indicates a `tokenId` whose `owner` is the zero address.",
          "params": {
            "tokenId": "Identifier number of a token."
          }
        }
      ],
      "OwnableInvalidOwner(address)": [
        {
          "details": "The owner is not a valid owner account. (eg. `address(0)`)"
        }
      ],
      "OwnableUnauthorizedAccount(address)": [
        {
          "details": "The caller account is not authorized to perform an operation."
        }
      ]
    },
    "events": {
      "Approval(address,address,uint256)": {
        "details": "Emitted when `owner` enables `approved` to manage the `tokenId` token."
      },
      "ApprovalForAll(address,address,bool)": {
        "details": "Emitted when `owner` enables or disables (`approved`) `operator` to manage all of its assets."
      },
      "BatchMetadataUpdate(uint256,uint256)": {
        "details": "This event emits when the metadata of a range of tokens is changed. So that the third-party platforms such as NFT market could timely update the images and related attributes of the NFTs."
      },
      "MetadataUpdate(uint256)": {
        "details": "This event emits when the metadata of a token is changed. So that the third-party platforms such as NFT market could timely update the images and related attributes of the NFT."
      },
      "Transfer(address,address,uint256)": {
        "details": "Emitted when `tokenId` token is transferred from `from` to `to`."
      }
    },
    "kind": "dev",
    "methods": {
      "approve(address,uint256)": {
        "details": "See {IERC721-approve}."
      },
      "balanceOf(address)": {
        "details": "See {IERC721-balanceOf}."
      },
      "getApproved(uint256)": {
        "details": "See {IERC721-getApproved}."
      },
      "isApprovedForAll(address,address)": {
        "details": "See {IERC721-isApprovedForAll}."
      },
      "name()": {
        "details": "See {IERC721Metadata-name}."
      },
      "owner()": {
        "details": "Returns the address of the current owner."
      },
      "ownerOf(uint256)": {
        "details": "See {IERC721-ownerOf}."
      },
      "renounceOwnership()": {
        "details": "Leaves the contract without owner. It will not be possible to call `onlyOwner` functions. Can only be called by the current owner. NOTE: Renouncing ownership will leave the contract without an owner, thereby disabling any functionality that is only available to the owner."
      },
      "safeTransferFrom(address,address,uint256)": {
        "details": "See {IERC721-safeTransferFrom}."
      },
      "safeTransferFrom(address,address,uint256,bytes)": {
        "details": "See {IERC721-safeTransferFrom}."
      },
      "setApprovalForAll(address,bool)": {
        "details": "See {IERC721-setApprovalForAll}."
      },
      "supportsInterface(bytes4)": {
        "details": "See {IERC165-supportsInterface}"
      },
      "symbol()": {
        "details": "See {IERC721Metadata-symbol}."
      },
      "tokenURI(uint256)": {
        "details": "See {IERC721Metadata-tokenURI}."
      },
      "transferFrom(address,address,uint256)": {
        "details": "See {IERC721-transferFrom}."
      },
      "transferOwnership(address)": {
        "details": "Transfers ownership of the contract to a new account (`newOwner`). Can only be called by the current owner."
      }
    },
    "version": 1
  },
  "userdoc": {
    "kind": "user",
    "methods": {},
    "version": 1
  }
}